{
  "contractName": "Election",
  "abi": [
    {
      "constant": false,
      "inputs": [
        {
          "name": "_candidateId",
          "type": "uint256"
        }
      ],
      "name": "vote",
      "outputs": [],
      "payable": false,
      "type": "function"
    },
    {
      "constant": true,
      "inputs": [],
      "name": "candidatesCount",
      "outputs": [
        {
          "name": "",
          "type": "uint256"
        }
      ],
      "payable": false,
      "type": "function"
    },
    {
      "constant": true,
      "inputs": [
        {
          "name": "",
          "type": "uint256"
        }
      ],
      "name": "candidates",
      "outputs": [
        {
          "name": "id",
          "type": "uint256"
        },
        {
          "name": "name",
          "type": "string"
        },
        {
          "name": "voteCount",
          "type": "uint256"
        }
      ],
      "payable": false,
      "type": "function"
    },
    {
      "constant": true,
      "inputs": [
        {
          "name": "",
          "type": "address"
        }
      ],
      "name": "voters",
      "outputs": [
        {
          "name": "",
          "type": "bool"
        }
      ],
      "payable": false,
      "type": "function"
    },
    {
      "inputs": [],
      "type": "constructor"
    }
  ],
  "bytecode": "0x60606040525b610047604060405190810160405280600b81526020017f43616e6469646174652031000000000000000000000000000000000000000000815260200150610098565b610089604060405190810160405280600b81526020017f43616e6469646174652032000000000000000000000000000000000000000000815260200150610098565b5b61026e806101c36000396000f35b600260008181505480929190600101919050555060606040519081016040528060026000505481526020018281526020016000815260200150600160005060006002600050548152602001908152602001600020600050600082015181600001600050556020820151816001016000509080519060200190828054600181600116156101000203166002900490600052602060002090601f016020900481019282601f1061015157805160ff1916838001178555610182565b82800160010185558215610182579182015b82811115610181578251826000505591602001919060010190610163565b5b5090506101ad919061018f565b808211156101a9576000818150600090555060010161018f565b5090565b5050604082015181600201600050559050505b505660606040526000357c0100000000000000000000000000000000000000000000000000000000900480630121b93f1461005d5780632d35a8a21461007a5780633477ee2e146100a2578063a3ec138d1461016357610058565b610002565b34610002576100786004808035906020019091905050610196565b005b346100025761008c600480505061020b565b6040518082815260200191505060405180910390f35b34610002576100bd6004808035906020019091905050610214565b60405180848152602001806020018381526020018281038252848181546001816001161561010002031660029004815260200191508054600181600116156101000203166002900480156101525780601f1061012757610100808354040283529160200191610152565b820191906000526020600020905b81548152906001019060200180831161013557829003601f168201915b505094505050505060405180910390f35b346100025761017e6004808035906020019091905050610249565b60405180821515815260200191505060405180910390f35b6001600060005060003373ffffffffffffffffffffffffffffffffffffffff16815260200190815260200160002060006101000a81548160ff02191690830217905550600160005060008281526020019081526020016000206000506002016000818150548092919060010191905055505b50565b60026000505481565b600160005060205280600052604060002060009150905080600001600050549080600101600050908060020160005054905083565b600060005060205280600052604060002060009150909054906101000a900460ff168156",
  "compiler": {
    "name": "solc",
    "version": "0.4.2+commit.af6afb04.mod.Emscripten.clang"
  },
  "schemaVersion": "3.4.4",
  "updatedAt": "2022-01-18T20:00:46.518Z",
  "networkType": "ethereum"
}